:040000009DEF7FF001
:10FEC100FFC4501200D58E1200C2821200026E01D0
:10FED100C0D7FF02C0D6FF12009EAC03D09E9C018A
:10FEE1000E1200000E1200016E01B002D0C290018C
:10FEF100D0C2801200D550F80B0509D56ED59CD51E
:10FF010096D59A1200016EF00E8C16F00E8A16012B
:10FF1100500F0B8C1201380F0B8A121200000E8346
:10FF21006E000E8C6E000E816E000E936EF00E95BB
:10FF31006EE00E7E6E926812000D6A0C6A0B6AC149
:10FF41000EF66EFE0EF76E000EF86E0900F5CF0E7E
:10FF5100F00001E3EF7FF08FEC7FF07BEC7FF0D3DB
:10FF61000E016E190E67EC7FF063EC7FF0BDEC7F44
:10FF7100F0010E74EC7FF0120092807E80C050F888
:10FF81000B0209C06EC050C70B1009C06E000EC134
:10FF91006EC294C296C298C29AC09E1200F2A40D7B
:10FFA100D0F294D30E016E190E67EC7FF063EC7FF3
:10FFB100F0000E046E010E036E1200000E046E00BE
:10FFC1000E036E1200ACEC7FF0000E0A6ECFEC7FD8
:10FFD100F003500410D8B409D00A2A190E0A18D80F
:10FFE100A404D0000E0A6E65EC7FF06DEC7FF0008A
:0FFFF10009D8B4ECD761EC7FF083EC7FF0E7D751
:020000040001F9
:01000000FF00
:020000040020DA
:08000000FFFFFFFFFFFFFFFF00
:020000040030CA
:0E000000FF06181EFF8180FF0FC00FE00F40AB
:00000001FF
