:04000000A2EF7FF0FC
:10FE3000CD801200D386D384FC0ED3161200106E30
:10FE40000FC0CFFF10C0CEFF12000F6EACA2FED7C6
:10FE50000FC0ADFF12000F6E0FB002D0AB9801D0F3
:10FE6000AB8812000F6E0FB002D0AC9A01D0AC8AF2
:10FE70001200CD8ECD9C300ECD12CD94CD921200BD
:10FE80006275656E20646961202F720041619EAACF
:10FE900004D0AECF0FF0106A1200000E106E000EEC
:10FEA0000F6E1200000EB06E190EAF6EAC98AC84DF
:10FEB000B886948E948CAB8EAB9C12000F6EF00EB5
:10FEC0008C16F00E8A160F500F0B8C120F380F0B7A
:10FED0008A121200000E836E000E8C6E000E816E70
:10FEE000000E936E000E956EE00E7E6E926812000C
:10FEF0009EA00DD09E90AA0E0F6E8C0E1FEC7FF070
:10FF000018EC7FF0000E126E010E116E1200000E42
:10FF1000126E000E116E12001AEC7FF052EC7FF0A0
:10FF20006AEC7FF0010E32EC7FF039EC7FF0AA0E24
:10FF30000F6E8C0E1FEC7FF018EC7FF0010E2BEC97
:10FF40007FF012001A6A196A800EF66EFE0EF76EC6
:10FF5000000EF86E00EE01F010EE0EF00900F5CF85
:10FF6000EEFFE550E150FAE1000EF86E0001B9EF46
:10FF70007FF0000E186E8CEC7FF047EC7FF00F5096
:10FF8000186E1850D8B40ED02F0E186408D03A0E40
:10FF9000186005D0191E410E0D6E610E0E6E1850C0
:10FFA0005EEC7FF078EC7FF011501210D8B4E5D7FA
:10FFB0001950DCEC7FF0E1D7106E1AD00D5025EC13
:10FFC0007FF05A0E0D18D8A403D0410E0D6E12000A
:10FFD0000D280D6E12000E5025EC7FF07A0E0E18D3
:10FFE000D8A403D0610E0E6E12000E280E6E120001
:10FFF0001050000AD8B4E2D7FF0AD8A41200EBD7F9
:020000040020DA
:08000000FFFFFFFFFFFFFFFF00
:020000040030CA
:0E000000FF88181EFF8180FF0FC00FE00F4029
:00000001FF
