:04000000E4EF7EF0BB
:10FDC700010E6A0D6A0C6AC70EF66EFD0EF76E001D
:10FDD7000EF86E0900F5CF0FF0000EF86E00019BCC
:10FDE700EF7FF0F00E8C16F00E8A160F500F0B8C6B
:10FDF700120F380F0B8A120F04D8A403D0800E0FEE
:10FE07006E1200D8900F300F6E1200F00E8C16F0A5
:10FE17000E8A160F500F0B8C120F380F0B8A128099
:10FE27000E0F18D8A403D0010E0F6E12000F500F3B
:10FE3700240F6E1200F00E8C16F00E8A1601500F6A
:10FE47000B8C1201380F0B8A120F50FF0A016E0F2D
:10FE570004D8A403D0800E0F6E1200D8900F300F75
:10FE67006E1200F00E8C16F00E8A1601500F0B8CD6
:10FE77001201380F0B8A120F50FF0A016E800E0F06
:10FE870018D8A403D0010E0F6E12000F500F240FC5
:10FE97006E1200F00E8C16F00E8A160F500F0B8C98
:10FEA700120F380F0B8A120C500D10D8A40CD00F5C
:10FEB700500F240F6E800E0F18D8A41200000E0DDD
:10FEC7006E010E0C6E1200D8900F300F6E0F04D813
:10FED700A41200000E0D6E000E0C6E12000FD04D16
:10FEE700EC7FF0120009EC7FF01200F5EC7EF012C7
:10FEF7000035EC7FF012001EEC7FF0120002C00408
:10FF0700F003C005F00550000AD8A4120004500100
:10FF17000AD8B4E5D7030AD8B4E5D7010AD8B4E5B7
:10FF2700D7070AD8B4E5D7010AD8A41200E4D70046
:10FF37000E836E000E8C6E000E816E000E936E00A7
:10FF47000E956EE00E7E6E9268E50E0B6E910EE8D2
:10FF57002EFED70B2EFCD700F0E50E0B6E910EE8A8
:10FF67002EFED70B2EFCD700F0E50E0B6E910EE898
:10FF77002EFED70B2EFCD700F0E50E0B6E910EE888
:10FF87002EFED70B2EFCD700F080AA26D02FD00E3E
:10FF9700C002F0036A72EC7FF0E50E0B6E910EE87B
:10FFA7002EFED70B2EFCD700F0E50E0B6E910EE858
:10FFB7002EFED70B2EFCD700F0E50E0B6E910EE848
:10FFC7002EFED70B2EFCD700F0E50E0B6E910EE838
:10FFD7002EFED70B2EFCD700F080AAD9D70E280EFD
:10FFE7006E060E0E18D8A402D0010E0E6E0EC002B9
:09FFF700F0036A72EC7FF0A8D758
:020000040001F9
:01000000FF00
:020000040020DA
:08000000FFFFFFFFFFFFFFFF00
:020000040030CA
:0E000000FF06181EFF8180FF0FC00FE00F40AB
:00000001FF
