:04000000ACEF78F0F9
:10EE0500010180CD801200C2821200026E01C0CFC6
:10EE1500FF02C0CEFF1200016EACA2FED701C0AD4D
:10EE2500FF12009EAC03D09E9C010E1200000E1234
:10EE350000016E01B002D0AB9801D0AB8812000181
:10EE45006E01B002D0AC9A01D0AC8A1200016E01FD
:10EE5500B002D0C29001D0C2801200CD8ECD9C30C0
:10EE65000ECD12CD94CD921200C79EC79CC698C6F2
:10EE750050F00B0209C66E000E946EC68A1200038E
:10EE85000EB06E400EAF6EAC98AC84B886948E947E
:10EE95008CAB8EAB9C1200000E836E000E8C6E0048
:10EEA5000E816E000E936EF00E956EE00E7E6E92E4
:10EEB500681200000E046E000E036EC4CF03F0044A
:10EEC5006A0350046E036AC350031203C001F004C1
:10EED500C002F012001B501C101D10D8B406D00043
:10EEE5000E1B1A000E1C1A800E1D1A1BC01BF01CCF
:10EEF500C01CF01DC01DF0120009C001F00AC002BF
:10EF0500F0036A8E0E046E000E056EECEC78F001CF
:10EF1500C009F002C00AF003C00BF0120092827E15
:10EF250080C050F80B0209C06EC050C70B1009C055
:10EF35006E000EC16EC250C30B0409C26EC08E12A4
:10EF4500000C6E0C50016E026A036A8E0E046E0090
:10EF55000E056EECEC78F001C009F002C00AF00372
:10EF6500C00BF0120005500702F3CF09F0F4CF0AE9
:10EF7500F005500802F3500A2606500702F3500A1E
:10EF85002609C005F00AC006F012009EA00DD09E0D
:10EF950090FC0E016E170E08EC77F004EC77F0008C
:10EFA5000E046E010E036E1200000E046E000E03B9
:10EFB5006E12004EEC77F030EC77F0FC0E016E1718
:10EFC5000E08EC77F004EC77F091EC77F0010E2960
:10EFD500EC77F042EC77F0010E22EC77F0010E1B96
:10EFE500EC77F037EC77F01200010E056E05500155
:10EFF5000DF3500224D96EF4500320DA6EDF500E63
:10F00500EC77F0052A0550010DF3500224D96EF472
:10F01500500320DA6E0D0EDE18D8A4E8D70D0E0EBB
:10F02500EC77F012002D502E102F10D8B406D0001A
:10F035000E2D1A000E2E1A800E2F1A2AC01EF02B26
:10F04500C01FF02CC020F02DC021F02EC022F02FC3
:10F05500C023F0B2EC7BF01EC02AF01FC02BF020BD
:10F06500C02CF0120003500410D8B418D0010E05BE
:10F075006E04D0D89003360436052A04AEFAD703B9
:10F0850050015C04500258D8A004D00350015E041E
:10F0950050025AD89004320332052EF1D701C0012F
:10F0A500F002C002F01200000E066E000E056E039F
:10F0B500500410D8B41CD0010E076E04D0D89003AC
:10F0C500360436072A04AEFAD7D890053606360335
:10F0D50050015C04500258D8A005D00350015E04CD
:10F0E50050025A0580D89004320332072EEDD70519
:10F0F500C001F006C002F0120000202020202020D0
:10F1050020202020200D0000803FF537C06A3040C8
:10F11500C461BF80F43760B73860B73880F43720F2
:10F12500202046494C54524F205041534142414AB8
:10F135004F53202020202020202020200A200D00B1
:10F145002056494E3A20090920564F55543A200A6F
:10F15500200D0001EEC8F011EE2CF0EE6AE550E14D
:10F1650050FCE1E250FAE101EE00F0C80EEE6AE86B
:10F1750006FDE100EEB9F0310EEE6AE806FDE100AC
:10F18500EE4FF00E0EEE6AE806FDE1FF0EF66EF0AC
:10F195000EF76E000EF86E00EE60F010EE59F009F5
:10F1A50000F5CFEEFFE550E150FAE1050EF66EEE03
:10F1B5000EF76E000EF86E0900F5CF5DF00900F54B
:10F1C500CF5EF00900F5CF5FF0000EF86E00012765
:10F1D500EF7BF00450D8B405D0015002100310D8CD
:10F1E500A40CD0000E016E000E026E000E036E120E
:10F1F50000042AD890033202320132000E011406AF
:10F205006E000E0214076EFE0E0314086E065007FC
:10F21500100810D8B40CD0ECD7042A010E01260032
:10F225000E0222000E0322D8900332023201320070
:10F235000E0114066E000E0214076EFF0E0314086D
:10F245006E065007100810D8B406D0E6D70406D8C5
:10F255009001360236033602BE03D0020E0460F674
:10F26500D704A0029ED8900432045003120550D84A
:10F27500A4038E01C001F002C002F003C003F01226
:10F28500000BC00FF0106A116A0A340F3601E31043
:10F29500800F50166E1650D8A407D0000E096E00C8
:10F2A5000E0A6E000E0B6E12000EC00FF0106A11E2
:10F2B5006A0D340F3601E310800F50176E1750D8C2
:10F2C500A407D0000E096E000E0A6E000E0B6E121A
:10F2D50000000E136E000E146E000E156E17508989
:10F2E5000F165E0BC017F00E50171A800E17160A70
:10F2F5008EFF0E0916FF0E0A16000E0B160D8EFF59
:10F305000E0C16FF0E0D16000E0E16180E126ED8E8
:10F31500901336143615360C50095C0D500A580EEC
:10F32500500B58D8A007D00C50095E0D500A5A0E44
:10F33500500B5A1380D89009360A360B36122EE731
:10F34500D713C001F014C002F015C003F016C004B5
:10F35500F017C005F0ECEC78F001C009F002C00A26
:10F36500F003C00BF012000EC012F0136A146A0D00
:10F3750034123601E313801250156E1550D8A407C8
:10F38500D0000E0C6E000E0D6E000E0E6E120011EA
:10F39500C012F0136A146A1034123601E313801296
:10F3A500501A6E1A50D8A407D0000E0C6E000E0D20
:10F3B5006E000E0E6E12001A507B0F15260EC01A27
:10F3C500F011501A1A800E1A160D8E108EFF0E0FA0
:10F3D50016FF0E1016000E1116000E166E000E17F3
:10F3E5006E000E186E070E196E0CA006D00F501683
:10F3F500261050172211501822D8900E320D320CBB
:10F4050032D8900F3610361136192EEED7090E194F
:10F415006E0CA006D00F501626105017221150184A
:10F4250022D8900E320D320C32D89018321732167F
:10F4350032192EEED716C001F017C002F018C0031E
:10F44500F015C004F01AC005F0ECEC78F001C00C22
:10F45500F002C00DF003C00EF012000DC00FF01049
:10F465006A116A0C340F3601E310800F50196E19BA
:10F4750050D8A409D0000E0B6E000E0C6E000E0DB8
:10F485006E000E0E6E1200170E0F6E0BC010F00CF4
:10F49500C011F00DC012F00F28136E04D0D89012D1
:10F4A5003211321032132EFAD71050146E0C8EFF13
:10F4B5000E0B16FF0E0C16000E0D160B50156E0CCE
:10F4C50050166E0D50176E186A8E0E195E19AE160F
:10F4D500D01950800A8F0FD8B009D0000E0B6E00DE
:10F4E5000E0C6E000E0D6E000E0E6E1200D89018EA
:10F4F50032173216321532193EF9D715D0170E19B3
:10F50500640FD0000E0B6E000E0C6E000E0D6E001B
:10F515000E0E6E1200D89015361636173618361997
:10F52500061950D8A4F7D71450D8B408D0181E1708
:10F535001E161E156C000E16221722182215C00B5A
:10F54500F016C00CF017C00DF018C00EF0120066D2
:10F55500D0BEC030F0BFC031F0C0C032F0030E33B2
:10F565006E0A0E346E88EC7CF030C053F031C05416
:10F57500F0000E506E010E4F6E120053C0D9FF54AD
:10F58500C0DAFF0D0EDE18D8B40AD053C0D9FF5427
:10F59500C0DAFFDF500EEC77F0534A542A12000907
:10F5A5000E0EEC77F0090E0EEC77F0000E506E02A1
:10F5B5000E4F6E1200C4C030F0C5C031F0C6C03267
:10F5C500F0030E336E0A0E346E88EC7CF030C055B5
:10F5D500F031C056F0000E506E030E4F6E120055FE
:10F5E500C0D9FF56C0DAFF0D0EDE18D8B40AD055C3
:10F5F500C0D9FF56C0DAFFDF500EEC77F0554A56FA
:10F605002A1200000E506E000E4F6E0A0E0EEC7799
:10F61500F00D0E0EEC77F0000E586E12004FC04242
:10F62500F050C043F04350000AD8A41200425000E5
:10F635000AD8B48ED7010AD8B4A0D7030AD8B4BA69
:10F64500D7010AD8A41200CBD7DCEC77F0000E4B1B
:10F655006E000E4C6E000E4E6E000E4D6E000E4A84
:10F665006E000E496E850E026E000E036EF7EC7786
:10F67500F0A60E026E000E036EF7EC77F0C8EC777D
:10F68500F003500410D8B403D0831E4C2A4B2A4BE8
:10F6950004D8A404D006EC77F0000E4B6EFA0E4C9D
:10F6A50018D8A438D0010E586E000E4C6E4DC00906
:10F6B500F04EC00AF07FEC77F009C00CF00AC00DDF
:10F6C500F00BC00EF0120E0F6E830E106E3A0E1177
:10F6D5006EB6EC79F00CC0BEF00DC0BFF00EC0C028
:10F6E500F049C009F04AC00AF07FEC77F009C00C78
:10F6F500F00AC00DF00BC00EF0120E0F6E830E1047
:10F705006E3A0E116EB6EC79F00CC0C4F00DC0C5A2
:10F71500F00EC0C6F014EC77F00009D8B41AD05C2E
:10F72500EC77F001C005F002C006F0000E086E038C
:10F735000E076EB5EC77F005C04DF006C04EF04DE6
:10F74500C02AF04EC02BF09AEC7DF02AC049F02B70
:10F75500C04AF05850D8B492D7AAEC7AF08FD72087
:10F76500C024F0256A266A1F34243601E325802447
:10F7750050296E23C024F0256A266A2234243601D6
:10F78500E325802450286E2950D8B40BD028502961
:10F795005CD8B00ED0295000082824246E180E24F9
:10F7A5006407D021C01EF022C01FF023C020F01234
:10F7B500002850D8B40BD02950285CD8B00ED028DA
:10F7C5005000082924246E180E246407D01EC01E7C
:10F7D500F01FC01FF020C020F01200060E276E207B
:10F7E500BE278E23BE278C1F8EFF0E1E16FF0E1FF3
:10F7F50016000E2016228EFF0E2116FF0E22160071
:10F805000E23162850295CD8B01BD0D8902136225B
:10F81500362336280629502818D8B40DD0270627B0
:10F82500C024F0070E2416D8B406D0EFD7D8902000
:10F83500321F321E32292A28502918D8B41FD0F673
:10F84500D72950285CD8B01AD0D8901E361F36203C
:10F8550036290629502818D8B40DD0270627C024E4
:10F86500F0070E2416D8B406D0EFD7D8902332224D
:10F87500322132282A28502918D8A4F7D727AE0CC8
:10F88500D0FF0E1E1AFF0E1F1AFF0E201A010E1EA4
:10F8950026000E1F22000E202227AC0CD0FF0E21C1
:10F8A5001AFF0E221AFF0E231A010E2126000E2220
:10F8B50022000E2322000E276E1E5021261F5022E5
:10F8C500222050232223AE0ED0FF0E211AFF0E2236
:10F8D5001AFF0E231A010E2126000E2222000E23E6
:10F8E50022010E276E21C001F022C002F023C003C1
:10F8F500F029C004F027C005F0ECEC78F001C01E3B
:10F90500F002C01FF003C020F01200000E416E008F
:10F915000E406E32AE0ED030C01BF031C01CF0323E
:10F92500C01DF06DEC77F01BC030F01CC031F01D30
:10F93500C032F0000E376E000E386E3F0E396E0085
:10F945000E416E000E406E16D037C009F038C00A61
:10F95500F039C00BF0000E0C6E200E0D6E410E0E30
:10F965006E43EC79F009C037F00AC038F00BC039A6
:10F97500F0404A412A3350356E366A3550405C3680
:10F98500504158D8A0E1D730C01EF031C01FF03229
:10F99500C020F037C021F038C022F039C023F0B2C2
:10F9A500EC7BF01EC030F01FC031F020C032F030CB
:10F9B500C00BF031C00CF032C00DF030EC7AF00B1A
:10F9C500C03EF00CC03FF03EC009F03FC00AF07FDA
:10F9D500EC77F009C01BF00AC01CF00BC01DF06DE0
:10F9E500EC77F01BC01EF01CC01FF01DC020F030CE
:10F9F500C021F031C022F032C023F0B2EC7BF01E02
:10FA0500C03BF01FC03CF020C03DF03E503F10D839
:10FA1500A42CD0CA0E4024D96E000E4120DA6E30D7
:10FA25000EDF6E404A412A21D0CA0E4024D96E000D
:10FA35000E4120DA6E3EC001F03FC002F034C00333
:10FA4500F0046A35EC78F00150300FDF6E404A4122
:10FA55002A3EC001F03FC002F034C003F0046A56EC
:10FA6500EC78F001C03EF002C03FF03E503F10D8A8
:10FA7500A4DBD7CA0E4024D96E000E4120DA6E2EC3
:10FA85000EDF6E404A412A40D03BC00CF03CC00D11
:10FA9500F03DC00EF0000E0F6E200E106E410E11DF
:10FAA5006EB6EC79F00CC03BF00DC03CF00EC03DDD
:10FAB500F03BC00BF03CC00CF03DC00DF030EC7AD3
:10FAC500F00B503A6ECA0E4024D96E000E4120DA72
:10FAD5006E3A50300FDF6E404A412A3BC02AF03C57
:10FAE500C02BF03DC02CF03A50A3EC77F009C02DA7
:10FAF500F00AC02EF00BC02FF015EC78F02AC03BB1
:10FB0500F02BC03CF02CC03DF033063328D8A4BC04
:10FB1500D7CA0E4024D96E000E4120DA6E0D0EDFD5
:10FB25006E404A412ACA0E306E000E316E120051E7
:10FB3500C02CF052C02DF0D8902C362D36060E2C48
:10FB450026000E2D22000E2C24D96E010E2D20DA52
:10FB55006E2AC0DEFF2BC0DDFF7CC00FF07DC0101C
:10FB6500F07EC011F051C02CF052C02DF0D8902C71
:10FB7500362D36040E2C26000E2D22000E2C24D9EF
:10FB85006E010E2D20DA6EDECF09F0DDCF0AF07F93
:10FB9500EC77F009C00CF00AC00DF00BC00EF0B602
:10FBA500EC79F00CC021F00DC022F00EC023F079E5
:10FBB500C00FF07AC010F07BC011F051C02EF0528A
:10FBC500C02FF0D8902E362F36060E2E26000E2F7B
:10FBD50022000E2E24D96E010E2F20DA6EDECF09FB
:10FBE500F0DDCF0AF07FEC77F009C00CF00AC00D0C
:10FBF500F00BC00EF0B6EC79F00CC01EF00DC01F76
:10FC0500F00EC020F0B2EC7BF01EC030F01FC0310A
:10FC1500F020C032F07FC00FF080C010F081C0111D
:10FC2500F051C02CF052C02DF0D8902C362D360254
:10FC35000E2C26000E2D22000E2C24D96E010E2D21
:10FC450020DA6EDECF09F0DDCF0AF07FEC77F00920
:10FC5500C00CF00AC00DF00BC00EF0B6EC79F00C3C
:10FC6500C021F00DC022F00EC023F030C01EF031CF
:10FC7500C01FF032C020F0B2EC7BF01EC033F01F85
:10FC8500C034F020C035F0030E5124056E000E522D
:10FC950020066E000E086E030E076EB5EC77F0C8F1
:10FCA5000E0524D96E010E0620DA6E33C01EF0341F
:10FCB500C01FF035C020F082C00FF083C010F08463
:10FCC500C011F0D8905134E16E5234E26E000EE16D
:10FCD50026010EE222E6CF09F0E5CF0AF07FEC77A8
:10FCE500F009C00CF00AC00DF00BC00EF0B6EC79AF
:10FCF500F00CC021F00DC022F00EC023F0B2EC7B59
:10FD0500F01EC0DEFF1FC0DEFF20C0DEFF000E08B4
:10FD15006E030E076E010E5124056E000E5220066D
:10FD25006EB5EC77F0C80E0524D96E010E0620DA03
:10FD35006EDECF0FF0DECF10F0DDCF11F073C00C0B
:10FD4500F074C00DF075C00EF0B6EC79F00CC02162
:10FD5500F00DC022F00EC023F0020E5124056E00F6
:10FD65000E5220066E000E086E030E076EB5EC7778
:10FD7500F0C80E0524D96E010E0620DA6EDECF0F0F
:10FD8500F0DECF10F0DDCF11F070C00CF071C00DBA
:10FD9500F072C00EF0B6EC79F00CC01EF00DC01F6D
:10FDA500F00EC020F0B2EC7BF01EC030F01FC03169
:10FDB500F020C032F0000E086E030E076E51C0052C
:10FDC500F052C006F0B5EC77F0C80E0524D96E01E7
:10FDD5000E0620DA6EDECF0FF0DECF10F0DDCF118C
:10FDE500F076C00CF077C00DF078C00EF0B6EC7967
:10FDF500F00CC021F00DC022F00EC023F030C01E63
:10FE0500F031C01FF032C020F0B2EC7BF01EC01BF9
:10FE1500F01FC01CF020C01DF06DEC77F01BC03347
:10FE2500F01CC034F01DC035F0030E5124056E00E2
:10FE35000E5220066E000E086E030E076EB5EC77A7
:10FE4500F0C80E0524D96E010E0620DA6E33C01EE9
:10FE5500F034C01FF035C020F0000E086E030E0709
:10FE65006E030E5124056E000E5220066EB5EC771A
:10FE7500F0C80E0524E16E010E0620E26EE6CF21E4
:10FE8500F0E6CF22F0E5CF23F0B2EC7BF01EC0DE2A
:10FE9500FF1FC0DEFF20C0DEFF010E5124516E00A2
:10FEA5000E5220526E030E51242C6E000E52202D40
:10FEB5006E640E2C182D10D8A481D051C02CF05290
:10FEC500C02DF0D8902C362D36040E2C26000E2D84
:10FED50022000E2C24D96E010E2D20DA6EDECF0401
:10FEE500F1DDCF05F151C02CF052C02DF0D8902C8A
:10FEF500362D36020E2C26000E2D22000E2C24D96E
:10FF05006E010E2D20DA6EDECF02F1DDCF03F1D8C2
:10FF1500905134D96E5234DA6E000ED926010EDABC
:10FF250022DECF00F1DDCF01F1020E5124056E0076
:10FF35000E5220066E000E086E030E076EB5EC77A6
:10FF4500F0C80E0524D96E010E0620DA6EDECFCE7E
:10FF5500F1DECFCFF1DDCFD0F1010E5124056E00DA
:10FF65000E5220066E000E086E030E076EB5EC7776
:10FF7500F0C80E0524D96E010E0620DA6EDECFCB51
:10FF8500F1DECFCCF1DDCFCDF151C005F052C00689
:10FF9500F0000E086E030E076EB5EC77F0C80E057F
:10FFA50024D96E010E0620DA6EDECFC8F1DECFC988
:10FFB500F1DDCFCAF1000E526E000E516E030E51E7
:10FFC50024056E000E5220066E000E086E030E0705
:10FFD5006EB5EC77F0C80E0524D96E010E0620DA51
:10FFE5006EDECF0BF0DECF0CF0DDCF0DF030EC7A0E
:0BFFF500F00BC02AF00CC02BF0120033
:020000040001F9
:01000000FF00
:020000040020DA
:08000000FFFFFFFFFFFFFFFF00
:020000040030CA
:0E000000FF06181EFF8180FF0FC00FE00F40AB
:00000001FF
