:040000009FEF7EF000
:10FBEA00D58E1200C2821200026E01C0D7FF02C077
:10FBFA00D6FF1200016EACA2FED701C0ADFF120003
:10FC0A009EAC03D09E9C010E1200000E1200016EE3
:10FC1A0001B002D0AC9A01D0AC8A1200016E01B0D8
:10FC2A0002D0C29001D0C2801200D550F80B05094B
:10FC3A00D56ED59CD596D59A120056616C6F7220F6
:10FC4A00636F6E76657273696F6E200D00FF016EC9
:10FC5A00F00E8C16F00E8A1601500F0B8C1201381A
:10FC6A000F0B8A121200030EB06E400EAF6EAC98E4
:10FC7A00AC84B886948E948CAB8EAB9C1200000E2A
:10FC8A00836E000E8C6E000E816E000E936EF00E67
:10FC9A00956EE00E7E6E92681200000E046E000EE3
:10FCAA00036EC4CF03F0046A0350046E036AC350A0
:10FCBA00031203C001F004C002F0120092807E8099
:10FCCA00C050F80B0209C06EC050C70B1009C06EB5
:10FCDA00000EC16EC294C296C298C29AC08E120019
:10FCEA00F2A40DD0F294D30E016E190EF9EC7DF048
:10FCFA00F5EC7DF0000E046E010E036E1200000E8C
:10FD0A00046E000E036E120044EC7EF01AEC7EF0D4
:10FD1A00D30E016E190EF9EC7DF0F5EC7DF063EC73
:10FD2A007EF0010E13EC7EF038EC7EF0010E0CEC46
:10FD3A007EF0120000EE18F0140EEE6AE806FDE1FD
:10FD4A00440EF66EFC0EF76E000EF86E00EE2CF006
:10FD5A0010EE14F00900F5CFEEFFE550E150FAE19C
:10FD6A00000EF86E000104EF7FF003500410D8B4BF
:10FD7A0018D0010E056E04D0D89003360436052A31
:10FD8A0004AEFAD70350015C04500258D8A004D03C
:10FD9A000350015E0450025AD89004320332052EF1
:10FDAA00F1D701C001F002C002F01200000E066E87
:10FDBA00000E056E03500410D8B41CD0010E076E55
:10FDCA0004D0D89003360436072A04AEFAD7D8905E
:10FDDA00053606360350015C04500258D8A005D0F7
:10FDEA000350015E0450025A0580D890043203324F
:10FDFA00072EEDD705C001F006C002F0120089EC0B
:10FE0A007EF0000E176E000E166E75EC7EF0035033
:10FE1A000410D8B410D0162A172A020E1718D8A41C
:10FE2A0004D0000E176EF7EC7DF07D0E1618D8A4DC
:10FE3A0002D0010E296E05EC7EF00009D8B409D073
:10FE4A0052EC7EF001C018F002C019F018502CECE8
:10FE5A007EF02950D8B4D9D734EC7FF0D6D747D022
:10FE6A008FEC7FF0000E256E010E246E12002C0E10
:10FE7A002624D96E000E2720DA6E0D0EDE18D8B4AD
:10FE8A000CD02C0E2624D96E000E2720DA6EDF50F5
:10FE9A00FFEC7DF0264A272A1200000E276E000E7C
:10FEAA00266E000E256E020E246E1200275010E1F7
:10FEBA00050E265CD8B00CD01F0E2624D96E000E73
:10FECA002720DA6EDF50FFEC7DF0264A272A12003F
:10FEDA00000E276E000E266E000E256E000E246E92
:10FEEA000A0EFFEC7DF00D0EFFEC7DF0120024C02F
:10FEFA000FF025C010F01050000AD8A412000F50BD
:10FF0A00000AD8B4ADD7010AD8B4B1D7030AD8A425
:10FF1A001200CCD718C00CF019C00DF0000E0E6EEE
:10FF2A00050E0E6401D016D00E50010D1A0EF324E0
:10FF3A00D96E000EF420DA6E000EDF6E0E50010D3F
:10FF4A001F0EF324D96E000EF420DA6E300EDF6E27
:10FF5A000E2AE6D7000E48D00CC001F00DC002F000
:10FF6A00000E046E0A0E036EBAEC7EF001C00AF0AF
:10FF7A0002C00BF00E50086E096A081E091E084AD4
:10FF8A00092A040E0826000E09221A0E0824D96E20
:10FF9A00000E0920DA6E0AC0DFFF0E50086E096AE9
:10FFAA00081E091E084A092A040E0826000E0922FC
:10FFBA001F0E0824D96E000E0920DA6E0A50300F7F
:10FFCA00DF6E0CC001F00DC002F0000E046E0A0EC6
:10FFDA00036EDBEC7EF001C00CF002C00DF00C5099
:10FFEA000D10D8A403D0050E0E6E01D00E2A040EF1
:06FFFA000E64B2D71200F4
:020000040020DA
:08000000FFFFFFFFFFFFFFFF00
:020000040030CA
:0E000000FF06181EFF8180FF0FC00FE00F40AB
:00000001FF
