:0400000033EF7FF06B
:10FDFB00FFD58E1200026E01C0D7FF02C0D6FF12D4
:10FE0B0000D580D582D584D59CD596D59A12002560
:10FE1B00EC7FF006EC7FF0C30E016E6F0E00EC7FF3
:10FE2B00F0FEEC7EF01200016EF00E8C16F00E8AD6
:10FE3B001601500F0B8C1201380F0B8A1212000097
:10FE4B000E836E000E8C6E000E816E000E936EF0A4
:10FE5B000E956EE00E7E6E926812000D6A0C6AFBB8
:10FE6B000EF66EFD0EF76E000EF86E0900F5CF0F55
:10FE7B00F0000EF86E000143EF7FF00DEC7FF08386
:10FE8B00380F0B070B0E6E54EC7FF003500410D899
:10FE9B00B4F6D70E50BFEC7FF00F1EF1D7F2A40DC6
:10FEAB00D0F294C30E016E6F0E00EC7FF0FEEC7E71
:10FEBB00F0000E046E010E036E1200000E046E00B5
:10FECB000E036E1200056E0FD0010E026E055081EF
:10FEDB00EC7FF01200000E026E045081EC7FF012EA
:10FEEB0000000E0D6E12000D50000AD8B4EDD701B4
:10FEFB000AD8B4F0D7F5D7036E13D003500F1419EB
:10FF0B00EC7FF0010E0C6E120003500F1419EC7FF6
:10FF1B00F0000E0C6E02C00DF01200000E0D6E12F2
:10FF2B00000C50000AD8B4E9D7010AD8B4EDD7F5C4
:10FF3B00D715D0010E026E810E81EC7FF0120002FC
:10FF4B000E026E420E81EC7FF01200000E026E2448
:10FF5B000E81EC7FF01200000E0D6E12000D5000A2
:10FF6B000AD8B4E7D7010AD8B4EAD7030AD8B4ED54
:10FF7B00D7F2D7066E28D00F50810B19EC7FF012F9
:10FF8B00000F50420B19EC7FF01200420E046E81F1
:10FF9B000E68EC7FF012000F50240B19EC7FF0125F
:10FFAB0000810E046E240E68EC7FF01200420E04EA
:10FFBB006E240E68EC7FF012009EEC7FF012000FA7
:10FFCB005019EC7FF012000650010AD8B4D4D703B5
:10FFDB000AD8B4D6D7010AD8B4D8D7070AD8B4DB15
:10FFEB00D7010AD8B4DDD7030AD8B4E0D7010AD8B1
:05FFFB00B4E3D7E5D7D7
:020000040001F9
:01000000FF00
:020000040020DA
:08000000FFFFFFFFFFFFFFFF00
:020000040030CA
:0E000000FF06181EFF8180FF0FC00FE00F40AB
:00000001FF
