:0400000064EF7FF03A
:10FE030001D58E1200026E01C0D7FF02C0D6FF12C9
:10FE130000D550F80B0409D56ED59CD596D59A120A
:10FE230000016EF00E8C16F00E8A1601500F0B8C2B
:10FE33001201380F0B8A1212000E5012EC7FF00ED3
:10FE430004D8A403D0800E0E6E1200D8900E300E8C
:10FE53006E12000E5012EC7FF0800E0E18D8A40321
:10FE6300D0010E0E6E12000E500E240E6E12000EF6
:10FE730050FF0A12EC7FF00E04D8A403D0800E0EBC
:10FE83006E1200D8900E300E6E1200000E836E00BC
:10FE93000E8C6E000E816E000E936E000E956EE05A
:10FEA3000E7E6E926812000E50FF0A12EC7FF080F5
:10FEB3000E0E18D8A403D0010E0E6E12000E500EB3
:10FEC300240E6E12000D6A0C6A0B6A030EF66EFEA8
:10FED3000EF76E000EF86E0900F5CF0EF0000EF867
:10FEE3006E0001D0EF7FF0F2A40DD0F294480E0122
:10FEF3006E2D0E04EC7FF002EC7FF0000E046E0119
:10FF03000E036E1200000E046E000E036E12000E3E
:10FF13005012EC7FF00B500C10D8A40CD00E500EE6
:10FF2300240E6E800E0E18D8A41200000E0C6E0163
:10FF33000E0B6E1200D8900E300E6E0E04D8A41263
:10FF430000000E0C6E000E0B6E12000FD089EC7FBA
:10FF5300F012002BEC7FF012001EEC7FF012005524
:10FF6300EC7FF0120039EC7FF0120002C004F003C2
:10FF7300C005F00550000AD8A412000450010AD8A5
:10FF8300B4E5D7030AD8B4E5D7010AD8B4E5D7074F
:10FF93000AD8B4E5D7010AD8A41200E4D747EC7F06
:10FFA300F00AEC7FF0480E016E2D0E04EC7FF00298
:10FFB300EC7FF075EC7FF003500410D8B406D00D3D
:10FFC300C002F0036AA7EC7FF0F4D780AA0CD0F14B
:10FFD300D775EC7FF003500410D8B405D00DC002E0
:10FFE300F0036AA7EC7FF080AAF3D70D280D6E0605
:0DFFF3000E0D18D8A4DED7010E0D6EDBD761
:020000040001F9
:01000000FF00
:020000040020DA
:08000000FFFFFFFFFFFFFFFF00
:020000040030CA
:0E000000FF06181EFF8180FF0FC00FE00F40AB
:00000001FF
