:040000009FEF7DF001
:10F77E00CD801200C28212002B6E2AC0CFFF2BC08A
:10F78E00CEFF12002A6EACA2FED72AC0ADFF120029
:10F79E009EAC03D09E9C010E1200000E12002A6E2B
:10F7AE002AB002D0AB9801D0AB8812002A6E2AB0D4
:10F7BE0002D0AC9A01D0AC8A12002A6E2AB002D0C6
:10F7CE00C29001D0C2801200CD8ECD9C300ECD12D3
:10F7DE00CD94CD9212009EAA04D0AECF2AF02B6A01
:10F7EE001200000E2B6E000E2A6E1200030EB06E6B
:10F7FE00400EAF6EAC98AC84B886948E948CAB8E63
:10F80E00AB9C12002A6EF00E8C16F00E8A162A5041
:10F81E000F0B8C122A380F0B8A121200000E836EF9
:10F82E00000E8C6E000E816E000E936EF00E956EB5
:10F83E00E00E7E6E92681200000E2D6E000E2C6E83
:10F84E00C4CF2CF02D6A2C502D6E2C6AC3502C1266
:10F85E002CC02AF02DC02BF0120092807E80C0505A
:10F86E00F80B0209C06EC050C70B1009C06E000E17
:10F87E00C16EC294C296C298C29AC08E12009EA049
:10F88E000DD09E90F60E2A6E3B0EC3EC7BF0BFECB5
:10F89E007BF0000E2D6E010E2C6E1200000E2D6EE2
:06F8AE00000E2C6E12009A
:10F8B500202020202020204C69737461206465205D
:10F8C500636F6D616E646F732020202020202020DF
:10F8D50020200A0D0001010180000E2A6E0DD08046
:10F8E500BA12D0010E456E000E05D080AA0CD000CC
:10F8F5000E456E010E2A6E07D04550000AD8B4EFAA
:10F90500D7010AD8B4F2D72A50120015EC7CF0EBD7
:10F91500EC7BF0F60E2A6E3B0EC3EC7BF0BFEC7B66
:10F92500F034EC7CF0010EE4EC7BF0FDEC7BF001B7
:10F935000EDDEC7BF0010ED6EC7BF012002E6E4155
:10F9450050D8A40BD02E50DAEC7CF02B50416E260B
:10F9550004D8A41200800E266E12002E50BCEC7C3A
:10F96500F02B50416E800E2618D8A41200010E26E9
:10F975006E12002D6E2D04D8A404D0265009EC7CFF
:10F98500F004D02650FF0A09EC7CF02604D8A40721
:10F99500D0800E266E000E2C6E000E2B6E1200D837
:10F9A500902630266E000E2C6E010E2B6E12002D49
:10F9B5006E2D04D8A404D0265009EC7CF004D02682
:10F9C50050FF0A09EC7CF0800E2618D8A407D00158
:10F9D5000E266E000E2C6E010E2B6E120026502682
:10F9E50024266E000E2C6E000E2B6E120012D046D1
:10F9F50050DAEC7CF012004650BCEC7CF01200466C
:10FA050050A1EC7CF0120071EC7DF01200000E4468
:10FA15006E12004450000AD8B4EAD7010AD8B4EBF4
:10FA2500D7030AD8B4ECD7010AD8B4EDD7EFD7205D
:10FA3500526F7461722064657265636861207075C8
:10FA45006C736172207465636C613A2020202020FC
:10FA55002072202020200A0D002056617363756CEA
:10FA6500616E74652070756C736172207465636C6A
:10FA7500613A2020202020202020207620202020D0
:10FA85000A0D002A6E000E2B6E13D0000E05D00154
:10FA95000E03D0020E01D0030E446E02D0000E04F8
:10FAA500D0010E2B6E19D0010E466EFAD7000EF955
:10FAB500D72A506C0AD8B4EBD7020AD8B4EFD71CB2
:10FAC5000AD8B4E3D7010AD8B4E6D7070AD8B4EB05
:10FAD500D7020AD8B4DED7EAD72B5012002950280E
:10FAE500102B6E4604D8A404D02B5009EC7CF004EE
:10FAF500D02B50FF0A09EC7CF0030E436006D0D8EA
:10FB0500902836D8902932432A1200020E43640900
:10FB1500D0060E436006D0D8902832D890293643B7
:10FB25002A1200060E4318D8A41200000E436E01D7
:10FB35000E286E800E296E120000EE3DF00A0EEEC4
:10FB45006AE806FDE1340EF66EFA0EF76E000EF861
:10FB55006E01EE00F010EE54F00900F5CFEEFFE572
:10FB650050E150FAE1B40EF66EFB0EF76E000EF89A
:10FB75006E00EE60F010EE9CF00900F5CFEEFFE5AB
:10FB850050E150FAE1B50EF66EF80EF76E000EF87C
:10FB95006E00EE01F010EE29F00900F5CFEEFFE55D
:10FBA50050E150FAE1000EF86E00017FEF7EF02083
:10FBB500526F74617220697A71756965726461202A
:10FBC50070756C736172207465636C613A202020D6
:10FBD500206C200A0D00206B6E69676874207269BD
:10FBE5006465722070756C736172207465636C61F5
:10FBF5003A2020202020202073200A0D0020526F5B
:10FC0500746120756E20756E6F2070726573696FF3
:10FC15006E61723A20202020202020202020207490
:10FC2500200A0D0020526F746120756E2063657285
:10FC35006F2070726563696F6E61722020202020CD
:10FC45002020202020206E200A0D002FBE06D02F58
:10FC55005007E1C90E2E5CD8B003D00A0E276E12EC
:10FC6500002FBE11D02F5004E1C90E2E5CD8A00B79
:10FC7500D02FBE06D0F50E2E5C010E2F58D8B0033E
:10FC8500D0140E276E12002FBE11D0F50E2E5C017A
:10FC95000E2F58D8A00BD02FBE06D0BD0E2E5C025D
:10FCA5000E2F58D8B003D01E0E276E12002FBE118E
:10FCB500D0BD0E2E5C020E2F58D8A00BD02FBE063D
:10FCC500D0850E2E5C030E2F58D8B003D0280E27F2
:10FCD5006E12002FBE1200850E2E5C030E2F58D813
:10FCE500A012002FBE06D0610E2E5C040E2F58D830
:10FCF500B012003C0E276E120088EC7CF0000E3826
:10FD05006E000E396E000E3A6E000E3B6E000E3C14
:10FD15006E000E356E000E376E000E366E46EC7CAC
:10FD2500F02C502D10D8B415D0364A372A37BE0FCF
:10FD3500D0D00E365C070E3758D8A009D0070E373D
:10FD45006ED00E366E382A392A3B2A3A2A02D0F26C
:10FD5500EC7EF0C80E3818D8A404D0C1EC7BF000B6
:10FD65000E386E140E3A18D8A40FD06FEC7CF00044
:10FD750009D8B402D0442A06D0040E4418D8A402E7
:10FD8500D0000E446E000E3A6E27503918D8A404E0
:10FD9500D0F9EC7CF0000E396E040E3B18D8A404A3
:10FDA500D0010E3C6E000E3B6E3C50D8B40AD0F22A
:10FDB500EC7BF02A5044EC7DF00009D8B402D00069
:10FDC5000E3C6ECFEC7BF00009D8B4A8D723EC7CB1
:10FDD500F02AC02EF02BC02FF028EC7EF09FD7EE36
:10FDE500D0010E3F24D96E000E4020DA6E0D0EDED6
:10FDF50018D8B40CD0010E3F24D96E000E4020DA7D
:10FE05006EDF50C9EC7BF03F4A402A1200000E40DD
:10FE15006E000E3F6E000E3E6E010E3D6E0D0EC95C
:10FE2500EC7BF01200000E3F24D96E010E4020DA63
:10FE35006E0D0EDE18D8B40CD0000E3F24D96E011D
:10FE45000E4020DA6EDF50C9EC7BF03F4A402A12A3
:10FE550000000E406E000E3F6E000E3E6E020E3D1F
:10FE65006E0D0EC9EC7BF01200600E3F24D96E00BA
:10FE75000E4020DA6E0D0EDE18D8B40CD0600E3FA1
:10FE850024D96E000E4020DA6EDF50C9EC7BF03FBE
:10FE95004A402A1200000E406E000E3F6E000E3ED4
:10FEA5006E030E3D6E0D0EC9EC7BF012002A0E3F5F
:10FEB50024D96E010E4020DA6E0D0EDE18D8B40C72
:10FEC500D02A0E3F24D96E010E4020DA6EDF50C9CC
:10FED500EC7BF03F4A402A1200000E406E000E3FB8
:10FEE5006E000E3E6E040E3D6E0D0EC9EC7BF012DB
:10FEF50000870E3F24D96E000E4020DA6E0D0EDE0F
:10FF050018D8B40CD0870E3F24D96E000E4020DAE5
:10FF15006EDF50C9EC7BF03F4A402A1200000E40CC
:10FF25006E000E3F6E000E3E6E050E3D6E0D0EC947
:10FF3500EC7BF01200AE0E3F24D96E000E4020DAA5
:10FF45006E0D0EDE18D8B40CD0AE0E3F24D96E005F
:10FF55000E4020DA6EDF50C9EC7BF03F4A402A1292
:10FF650000000E406E000E3F6E000E3E6E060E3D0A
:10FF75006E0D0EC9EC7BF01200D50E3F24D96E0034
:10FF85000E4020DA6E0D0EDE18D8B40CD0D50E3F1B
:10FF950024D96E000E4020DA6EDF50C9EC7BF03FAD
:10FFA5004A402A1200000E406E000E3F6E0D0EC92B
:10FFB500EC7BF0000E3E6E090E3D6E12003DC02B2F
:10FFC500F03EC02CF02C50000AD8A412002B500093
:10FFD5000AD8B406D7010AD8B425D7030AD8B44439
:10FFE500D7010AD8B463D7070AD8B482D7010AD88B
:0BFFF500B4A1D7030AD8A41200BFD7A4
:020000040001F9
:01000000FF00
:020000040020DA
:08000000FFFFFFFFFFFFFFFF00
:020000040030CA
:0E000000FF06181EFF8180FF0FC00FE00F40AB
:00000001FF
